{
  "contractName": "Timelock",
  "abi": [
    {
      "constant": false,
      "inputs": [],
      "name": "unpause",
      "outputs": [],
      "payable": false,
      "stateMutability": "nonpayable",
      "type": "function"
    },
    {
      "constant": true,
      "inputs": [
        {
          "name": "account",
          "type": "address"
        }
      ],
      "name": "isPauser",
      "outputs": [
        {
          "name": "",
          "type": "bool"
        }
      ],
      "payable": false,
      "stateMutability": "view",
      "type": "function"
    },
    {
      "constant": true,
      "inputs": [],
      "name": "paused",
      "outputs": [
        {
          "name": "",
          "type": "bool"
        }
      ],
      "payable": false,
      "stateMutability": "view",
      "type": "function"
    },
    {
      "constant": false,
      "inputs": [],
      "name": "renouncePauser",
      "outputs": [],
      "payable": false,
      "stateMutability": "nonpayable",
      "type": "function"
    },
    {
      "constant": false,
      "inputs": [],
      "name": "renounceOwnership",
      "outputs": [],
      "payable": false,
      "stateMutability": "nonpayable",
      "type": "function"
    },
    {
      "constant": false,
      "inputs": [
        {
          "name": "account",
          "type": "address"
        }
      ],
      "name": "addPauser",
      "outputs": [],
      "payable": false,
      "stateMutability": "nonpayable",
      "type": "function"
    },
    {
      "constant": false,
      "inputs": [],
      "name": "pause",
      "outputs": [],
      "payable": false,
      "stateMutability": "nonpayable",
      "type": "function"
    },
    {
      "constant": true,
      "inputs": [],
      "name": "owner",
      "outputs": [
        {
          "name": "",
          "type": "address"
        }
      ],
      "payable": false,
      "stateMutability": "view",
      "type": "function"
    },
    {
      "constant": true,
      "inputs": [],
      "name": "isOwner",
      "outputs": [
        {
          "name": "",
          "type": "bool"
        }
      ],
      "payable": false,
      "stateMutability": "view",
      "type": "function"
    },
    {
      "constant": false,
      "inputs": [
        {
          "name": "newOwner",
          "type": "address"
        }
      ],
      "name": "transferOwnership",
      "outputs": [],
      "payable": false,
      "stateMutability": "nonpayable",
      "type": "function"
    },
    {
      "inputs": [
        {
          "name": "token",
          "type": "address"
        }
      ],
      "payable": false,
      "stateMutability": "nonpayable",
      "type": "constructor"
    },
    {
      "anonymous": false,
      "inputs": [
        {
          "indexed": false,
          "name": "amount",
          "type": "uint256"
        }
      ],
      "name": "TokensDeposited",
      "type": "event"
    },
    {
      "anonymous": false,
      "inputs": [
        {
          "indexed": false,
          "name": "beneficiary",
          "type": "address"
        },
        {
          "indexed": false,
          "name": "amount",
          "type": "uint256"
        }
      ],
      "name": "TokensLocked",
      "type": "event"
    },
    {
      "anonymous": false,
      "inputs": [
        {
          "indexed": false,
          "name": "beneficiary",
          "type": "address"
        },
        {
          "indexed": false,
          "name": "amount",
          "type": "uint256"
        }
      ],
      "name": "TokensReleased",
      "type": "event"
    },
    {
      "anonymous": false,
      "inputs": [
        {
          "indexed": false,
          "name": "account",
          "type": "address"
        }
      ],
      "name": "Paused",
      "type": "event"
    },
    {
      "anonymous": false,
      "inputs": [
        {
          "indexed": false,
          "name": "account",
          "type": "address"
        }
      ],
      "name": "Unpaused",
      "type": "event"
    },
    {
      "anonymous": false,
      "inputs": [
        {
          "indexed": true,
          "name": "account",
          "type": "address"
        }
      ],
      "name": "PauserAdded",
      "type": "event"
    },
    {
      "anonymous": false,
      "inputs": [
        {
          "indexed": true,
          "name": "account",
          "type": "address"
        }
      ],
      "name": "PauserRemoved",
      "type": "event"
    },
    {
      "anonymous": false,
      "inputs": [
        {
          "indexed": true,
          "name": "previousOwner",
          "type": "address"
        },
        {
          "indexed": true,
          "name": "newOwner",
          "type": "address"
        }
      ],
      "name": "OwnershipTransferred",
      "type": "event"
    },
    {
      "constant": true,
      "inputs": [],
      "name": "funds",
      "outputs": [
        {
          "name": "",
          "type": "uint256"
        }
      ],
      "payable": false,
      "stateMutability": "view",
      "type": "function"
    },
    {
      "constant": true,
      "inputs": [
        {
          "name": "beneficiary",
          "type": "address"
        }
      ],
      "name": "balanceOf",
      "outputs": [
        {
          "name": "",
          "type": "uint256"
        }
      ],
      "payable": false,
      "stateMutability": "view",
      "type": "function"
    },
    {
      "constant": true,
      "inputs": [
        {
          "name": "beneficiary",
          "type": "address"
        }
      ],
      "name": "releaseTimeOf",
      "outputs": [
        {
          "name": "",
          "type": "uint256"
        }
      ],
      "payable": false,
      "stateMutability": "view",
      "type": "function"
    },
    {
      "constant": false,
      "inputs": [
        {
          "name": "amount",
          "type": "uint256"
        }
      ],
      "name": "deposit",
      "outputs": [],
      "payable": false,
      "stateMutability": "nonpayable",
      "type": "function"
    },
    {
      "constant": false,
      "inputs": [
        {
          "name": "beneficiary",
          "type": "address"
        },
        {
          "name": "releaseTime",
          "type": "uint256"
        },
        {
          "name": "amount",
          "type": "uint256"
        }
      ],
      "name": "lock",
      "outputs": [],
      "payable": false,
      "stateMutability": "nonpayable",
      "type": "function"
    },
    {
      "constant": false,
      "inputs": [
        {
          "name": "beneficiary",
          "type": "address"
        }
      ],
      "name": "release",
      "outputs": [],
      "payable": false,
      "stateMutability": "nonpayable",
      "type": "function"
    }
  ],
  "bytecode": "0x60806040523480156200001157600080fd5b5060405160208062002292833981018060405260208110156200003357600080fd5b8101908080519060200190929190505050336000806101000a81548173ffffffffffffffffffffffffffffffffffffffff021916908373ffffffffffffffffffffffffffffffffffffffff1602179055506000809054906101000a900473ffffffffffffffffffffffffffffffffffffffff1673ffffffffffffffffffffffffffffffffffffffff16600073ffffffffffffffffffffffffffffffffffffffff167f8be0079c531659141344cd1fd0a4f28419497f9722a3daafe3b4186f6b6457e060405160405180910390a362000111336200025760201b60201c565b6000600260006101000a81548160ff02191690831515021790555080600260016101000a81548173ffffffffffffffffffffffffffffffffffffffff021916908373ffffffffffffffffffffffffffffffffffffffff160217905550600260019054906101000a900473ffffffffffffffffffffffffffffffffffffffff1673ffffffffffffffffffffffffffffffffffffffff166370a08231306040518263ffffffff1660e01b8152600401808273ffffffffffffffffffffffffffffffffffffffff1673ffffffffffffffffffffffffffffffffffffffff16815260200191505060206040518083038186803b1580156200020d57600080fd5b505afa15801562000222573d6000803e3d6000fd5b505050506040513d60208110156200023957600080fd5b8101908080519060200190929190505050600381905550506200047c565b62000272816001620002b860201b62001b201790919060201c565b8073ffffffffffffffffffffffffffffffffffffffff167f6719d08c1888103bea251a4ed56406bd0c3e69723c8a1686e017e7bbe159b6f860405160405180910390a250565b620002ca82826200039c60201b60201c565b156200033e576040517f08c379a000000000000000000000000000000000000000000000000000000000815260040180806020018281038252601f8152602001807f526f6c65733a206163636f756e7420616c72656164792068617320726f6c650081525060200191505060405180910390fd5b60018260000160008373ffffffffffffffffffffffffffffffffffffffff1673ffffffffffffffffffffffffffffffffffffffff16815260200190815260200160002060006101000a81548160ff0219169083151502179055505050565b60008073ffffffffffffffffffffffffffffffffffffffff168273ffffffffffffffffffffffffffffffffffffffff16141562000425576040517f08c379a0000000000000000000000000000000000000000000000000000000008152600401808060200182810382526022815260200180620022706022913960400191505060405180910390fd5b8260000160008373ffffffffffffffffffffffffffffffffffffffff1673ffffffffffffffffffffffffffffffffffffffff16815260200190815260200160002060009054906101000a900460ff16905092915050565b611de4806200048c6000396000f3fe608060405234801561001057600080fd5b50600436106101005760003560e01c806382dc1ec411610097578063b6b55f2511610066578063b6b55f251461034f578063c89f2ce41461037d578063e2ab691d1461039b578063f2fde38b146103f357610100565b806382dc1ec4146102955780638456cb59146102d95780638da5cb5b146102e35780638f32d59b1461032d57610100565b80635c975abb116100d35780635c975abb146102075780636ef8d66d1461022957806370a0823114610233578063715018a61461028b57610100565b80631916558714610105578063286c241a146101495780633f4ba83a146101a157806346fbf68e146101ab575b600080fd5b6101476004803603602081101561011b57600080fd5b81019080803573ffffffffffffffffffffffffffffffffffffffff169060200190929190505050610437565b005b61018b6004803603602081101561015f57600080fd5b81019080803573ffffffffffffffffffffffffffffffffffffffff16906020019092919050505061082f565b6040518082815260200191505060405180910390f35b6101a96108fd565b005b6101ed600480360360208110156101c157600080fd5b81019080803573ffffffffffffffffffffffffffffffffffffffff169060200190929190505050610a5d565b604051808215151515815260200191505060405180910390f35b61020f610a7a565b604051808215151515815260200191505060405180910390f35b610231610a91565b005b6102756004803603602081101561024957600080fd5b81019080803573ffffffffffffffffffffffffffffffffffffffff169060200190929190505050610a9c565b6040518082815260200191505060405180910390f35b610293610b6a565b005b6102d7600480360360208110156102ab57600080fd5b81019080803573ffffffffffffffffffffffffffffffffffffffff169060200190929190505050610ca3565b005b6102e1610d0d565b005b6102eb610e6e565b604051808273ffffffffffffffffffffffffffffffffffffffff1673ffffffffffffffffffffffffffffffffffffffff16815260200191505060405180910390f35b610335610e97565b604051808215151515815260200191505060405180910390f35b61037b6004803603602081101561036557600080fd5b8101908080359060200190929190505050610eee565b005b610385610fe0565b6040518082815260200191505060405180910390f35b6103f1600480360360608110156103b157600080fd5b81019080803573ffffffffffffffffffffffffffffffffffffffff1690602001909291908035906020019092919080359060200190929190505050610fea565b005b6104356004803603602081101561040957600080fd5b81019080803573ffffffffffffffffffffffffffffffffffffffff1690602001909291905050506112e5565b005b61043f610e97565b6104b1576040517f08c379a00000000000000000000000000000000000000000000000000000000081526004018080602001828103825260208152602001807f4f776e61626c653a2063616c6c6572206973206e6f7420746865206f776e657281525060200191505060405180910390fd5b600260009054906101000a900460ff1615610534576040517f08c379a00000000000000000000000000000000000000000000000000000000081526004018080602001828103825260108152602001807f5061757361626c653a207061757365640000000000000000000000000000000081525060200191505060405180910390fd5b600073ffffffffffffffffffffffffffffffffffffffff168173ffffffffffffffffffffffffffffffffffffffff1614156105ba576040517f08c379a0000000000000000000000000000000000000000000000000000000008152600401808060200182810382526029815260200180611cc76029913960400191505060405180910390fd5b6000600560008373ffffffffffffffffffffffffffffffffffffffff1673ffffffffffffffffffffffffffffffffffffffff1681526020019081526020016000205411610652576040517f08c379a000000000000000000000000000000000000000000000000000000000815260040180806020018281038252602a815260200180611d8f602a913960400191505060405180910390fd5b600460008273ffffffffffffffffffffffffffffffffffffffff1673ffffffffffffffffffffffffffffffffffffffff168152602001908152602001600020544210156106ea576040517f08c379a000000000000000000000000000000000000000000000000000000000815260040180806020018281038252602d815260200180611c9a602d913960400191505060405180910390fd5b6000600560008373ffffffffffffffffffffffffffffffffffffffff1673ffffffffffffffffffffffffffffffffffffffff16815260200190815260200160002054905061077b8282600260019054906101000a900473ffffffffffffffffffffffffffffffffffffffff1673ffffffffffffffffffffffffffffffffffffffff1661136b9092919063ffffffff16565b6000600560008473ffffffffffffffffffffffffffffffffffffffff1673ffffffffffffffffffffffffffffffffffffffff168152602001908152602001600020819055507fc7798891864187665ac6dd119286e44ec13f014527aeeb2b8eb3fd413df931798282604051808373ffffffffffffffffffffffffffffffffffffffff1673ffffffffffffffffffffffffffffffffffffffff1681526020018281526020019250505060405180910390a15050565b60008073ffffffffffffffffffffffffffffffffffffffff168273ffffffffffffffffffffffffffffffffffffffff1614156108b6576040517f08c379a0000000000000000000000000000000000000000000000000000000008152600401808060200182810382526029815260200180611cc76029913960400191505060405180910390fd5b600460008373ffffffffffffffffffffffffffffffffffffffff1673ffffffffffffffffffffffffffffffffffffffff168152602001908152602001600020549050919050565b61090633610a5d565b61095b576040517f08c379a0000000000000000000000000000000000000000000000000000000008152600401808060200182810382526030815260200180611c446030913960400191505060405180910390fd5b600260009054906101000a900460ff166109dd576040517f08c379a00000000000000000000000000000000000000000000000000000000081526004018080602001828103825260148152602001807f5061757361626c653a206e6f742070617573656400000000000000000000000081525060200191505060405180910390fd5b6000600260006101000a81548160ff0219169083151502179055507f5db9ee0a495bf2e6ff9c91a7834c1ba4fdd244a5e8aa4e537bd38aeae4b073aa33604051808273ffffffffffffffffffffffffffffffffffffffff1673ffffffffffffffffffffffffffffffffffffffff16815260200191505060405180910390a1565b6000610a7382600161143c90919063ffffffff16565b9050919050565b6000600260009054906101000a900460ff16905090565b610a9a3361151a565b565b60008073ffffffffffffffffffffffffffffffffffffffff168273ffffffffffffffffffffffffffffffffffffffff161415610b23576040517f08c379a0000000000000000000000000000000000000000000000000000000008152600401808060200182810382526029815260200180611cc76029913960400191505060405180910390fd5b600560008373ffffffffffffffffffffffffffffffffffffffff1673ffffffffffffffffffffffffffffffffffffffff168152602001908152602001600020549050919050565b610b72610e97565b610be4576040517f08c379a00000000000000000000000000000000000000000000000000000000081526004018080602001828103825260208152602001807f4f776e61626c653a2063616c6c6572206973206e6f7420746865206f776e657281525060200191505060405180910390fd5b600073ffffffffffffffffffffffffffffffffffffffff166000809054906101000a900473ffffffffffffffffffffffffffffffffffffffff1673ffffffffffffffffffffffffffffffffffffffff167f8be0079c531659141344cd1fd0a4f28419497f9722a3daafe3b4186f6b6457e060405160405180910390a360008060006101000a81548173ffffffffffffffffffffffffffffffffffffffff021916908373ffffffffffffffffffffffffffffffffffffffff160217905550565b610cac33610a5d565b610d01576040517f08c379a0000000000000000000000000000000000000000000000000000000008152600401808060200182810382526030815260200180611c446030913960400191505060405180910390fd5b610d0a81611574565b50565b610d1633610a5d565b610d6b576040517f08c379a0000000000000000000000000000000000000000000000000000000008152600401808060200182810382526030815260200180611c446030913960400191505060405180910390fd5b600260009054906101000a900460ff1615610dee576040517f08c379a00000000000000000000000000000000000000000000000000000000081526004018080602001828103825260108152602001807f5061757361626c653a207061757365640000000000000000000000000000000081525060200191505060405180910390fd5b6001600260006101000a81548160ff0219169083151502179055507f62e78cea01bee320cd4e420270b5ea74000d11b0c9f74754ebdbfc544b05a25833604051808273ffffffffffffffffffffffffffffffffffffffff1673ffffffffffffffffffffffffffffffffffffffff16815260200191505060405180910390a1565b60008060009054906101000a900473ffffffffffffffffffffffffffffffffffffffff16905090565b60008060009054906101000a900473ffffffffffffffffffffffffffffffffffffffff1673ffffffffffffffffffffffffffffffffffffffff163373ffffffffffffffffffffffffffffffffffffffff1614905090565b60008111610f47576040517f08c379a0000000000000000000000000000000000000000000000000000000008152600401808060200182810382526035815260200180611c0f6035913960400191505060405180910390fd5b610f96333083600260019054906101000a900473ffffffffffffffffffffffffffffffffffffffff1673ffffffffffffffffffffffffffffffffffffffff166115ce909392919063ffffffff16565b806003600082825401925050819055507f77acf75e237f9aae98f997395832d522bdb695e4a9bd07704936aa889a3667d1816040518082815260200191505060405180910390a150565b6000600354905090565b610ff2610e97565b611064576040517f08c379a00000000000000000000000000000000000000000000000000000000081526004018080602001828103825260208152602001807f4f776e61626c653a2063616c6c6572206973206e6f7420746865206f776e657281525060200191505060405180910390fd5b600260009054906101000a900460ff16156110e7576040517f08c379a00000000000000000000000000000000000000000000000000000000081526004018080602001828103825260108152602001807f5061757361626c653a207061757365640000000000000000000000000000000081525060200191505060405180910390fd5b600073ffffffffffffffffffffffffffffffffffffffff168373ffffffffffffffffffffffffffffffffffffffff16141561116d576040517f08c379a0000000000000000000000000000000000000000000000000000000008152600401808060200182810382526029815260200180611cc76029913960400191505060405180910390fd5b600354811115801561117f5750600081115b6111d4576040517f08c379a0000000000000000000000000000000000000000000000000000000008152600401808060200182810382526032815260200180611cf06032913960400191505060405180910390fd5b81600460008573ffffffffffffffffffffffffffffffffffffffff1673ffffffffffffffffffffffffffffffffffffffff1681526020019081526020016000208190555080600560008573ffffffffffffffffffffffffffffffffffffffff1673ffffffffffffffffffffffffffffffffffffffff16815260200190815260200160002060008282540192505081905550806003600082825403925050819055507fac87f20a77d28ee8bbb58ec87ea8fa968b3393efae1a368fd50b767c2847391c8382604051808373ffffffffffffffffffffffffffffffffffffffff1673ffffffffffffffffffffffffffffffffffffffff1681526020018281526020019250505060405180910390a1505050565b6112ed610e97565b61135f576040517f08c379a00000000000000000000000000000000000000000000000000000000081526004018080602001828103825260208152602001807f4f776e61626c653a2063616c6c6572206973206e6f7420746865206f776e657281525060200191505060405180910390fd5b611368816116d4565b50565b611437838473ffffffffffffffffffffffffffffffffffffffff1663a9059cbb905060e01b8484604051602401808373ffffffffffffffffffffffffffffffffffffffff1673ffffffffffffffffffffffffffffffffffffffff16815260200182815260200192505050604051602081830303815290604052907bffffffffffffffffffffffffffffffffffffffffffffffffffffffff19166020820180517bffffffffffffffffffffffffffffffffffffffffffffffffffffffff8381831617835250505050611818565b505050565b60008073ffffffffffffffffffffffffffffffffffffffff168273ffffffffffffffffffffffffffffffffffffffff1614156114c3576040517f08c379a0000000000000000000000000000000000000000000000000000000008152600401808060200182810382526022815260200180611d436022913960400191505060405180910390fd5b8260000160008373ffffffffffffffffffffffffffffffffffffffff1673ffffffffffffffffffffffffffffffffffffffff16815260200190815260200160002060009054906101000a900460ff16905092915050565b61152e816001611a6390919063ffffffff16565b8073ffffffffffffffffffffffffffffffffffffffff167fcd265ebaf09df2871cc7bd4133404a235ba12eff2041bb89d9c714a2621c7c7e60405160405180910390a250565b611588816001611b2090919063ffffffff16565b8073ffffffffffffffffffffffffffffffffffffffff167f6719d08c1888103bea251a4ed56406bd0c3e69723c8a1686e017e7bbe159b6f860405160405180910390a250565b6116ce848573ffffffffffffffffffffffffffffffffffffffff166323b872dd905060e01b858585604051602401808473ffffffffffffffffffffffffffffffffffffffff1673ffffffffffffffffffffffffffffffffffffffff1681526020018373ffffffffffffffffffffffffffffffffffffffff1673ffffffffffffffffffffffffffffffffffffffff1681526020018281526020019350505050604051602081830303815290604052907bffffffffffffffffffffffffffffffffffffffffffffffffffffffff19166020820180517bffffffffffffffffffffffffffffffffffffffffffffffffffffffff8381831617835250505050611818565b50505050565b600073ffffffffffffffffffffffffffffffffffffffff168173ffffffffffffffffffffffffffffffffffffffff16141561175a576040517f08c379a0000000000000000000000000000000000000000000000000000000008152600401808060200182810382526026815260200180611c746026913960400191505060405180910390fd5b8073ffffffffffffffffffffffffffffffffffffffff166000809054906101000a900473ffffffffffffffffffffffffffffffffffffffff1673ffffffffffffffffffffffffffffffffffffffff167f8be0079c531659141344cd1fd0a4f28419497f9722a3daafe3b4186f6b6457e060405160405180910390a3806000806101000a81548173ffffffffffffffffffffffffffffffffffffffff021916908373ffffffffffffffffffffffffffffffffffffffff16021790555050565b6118378273ffffffffffffffffffffffffffffffffffffffff16611bfb565b6118a9576040517f08c379a000000000000000000000000000000000000000000000000000000000815260040180806020018281038252601f8152602001807f5361666545524332303a2063616c6c20746f206e6f6e2d636f6e74726163740081525060200191505060405180910390fd5b600060608373ffffffffffffffffffffffffffffffffffffffff16836040518082805190602001908083835b602083106118f857805182526020820191506020810190506020830392506118d5565b6001836020036101000a0380198251168184511680821785525050505050509050019150506000604051808303816000865af19150503d806000811461195a576040519150601f19603f3d011682016040523d82523d6000602084013e61195f565b606091505b5091509150816119d7576040517f08c379a00000000000000000000000000000000000000000000000000000000081526004018080602001828103825260208152602001807f5361666545524332303a206c6f772d6c6576656c2063616c6c206661696c656481525060200191505060405180910390fd5b600081511115611a5d578080602001905160208110156119f657600080fd5b8101908080519060200190929190505050611a5c576040517f08c379a000000000000000000000000000000000000000000000000000000000815260040180806020018281038252602a815260200180611d65602a913960400191505060405180910390fd5b5b50505050565b611a6d828261143c565b611ac2576040517f08c379a0000000000000000000000000000000000000000000000000000000008152600401808060200182810382526021815260200180611d226021913960400191505060405180910390fd5b60008260000160008373ffffffffffffffffffffffffffffffffffffffff1673ffffffffffffffffffffffffffffffffffffffff16815260200190815260200160002060006101000a81548160ff0219169083151502179055505050565b611b2a828261143c565b15611b9d576040517f08c379a000000000000000000000000000000000000000000000000000000000815260040180806020018281038252601f8152602001807f526f6c65733a206163636f756e7420616c72656164792068617320726f6c650081525060200191505060405180910390fd5b60018260000160008373ffffffffffffffffffffffffffffffffffffffff1673ffffffffffffffffffffffffffffffffffffffff16815260200190815260200160002060006101000a81548160ff0219169083151502179055505050565b600080823b90506000811191505091905056fe54696d656c6f636b3a20616d6f756e74206f6620746f6b656e7320746f206265206465706f736974656420697320696e76616c6964506175736572526f6c653a2063616c6c657220646f6573206e6f742068617665207468652050617573657220726f6c654f776e61626c653a206e6577206f776e657220697320746865207a65726f206164647265737354696d656c6f636b3a2063757272656e742074696d65206973206265666f72652072656c656173652074696d6554696d656c6f636b3a2062656e656669636961727920697320746865207a65726f206164647265737354696d656c6f636b3a20616d6f756e74206f6620746f6b656e7320746f206265206c6f636b656420697320696e76616c6964526f6c65733a206163636f756e7420646f6573206e6f74206861766520726f6c65526f6c65733a206163636f756e7420697320746865207a65726f20616464726573735361666545524332303a204552433230206f7065726174696f6e20646964206e6f74207375636365656454696d656c6f636b3a206e6f20746f6b656e73206c6f636b656420666f722062656e6566696369617279a165627a7a72305820bd8592cdf405dd59097346fad285207f371f5e91322df6f9481fd056d069026f0029526f6c65733a206163636f756e7420697320746865207a65726f2061646472657373",
  "source": "pragma solidity ^0.5.8;\nimport \"../node_modules/openzeppelin-solidity/contracts/ownership/Ownable.sol\";\nimport \"../node_modules/openzeppelin-solidity/contracts/lifecycle/Pausable.sol\";\nimport \"../node_modules/openzeppelin-solidity/contracts/math/SafeMath.sol\";\nimport \"../node_modules/openzeppelin-solidity/contracts/token/ERC20/SafeERC20.sol\";\n\n/**\n * @title Timelock\n * @dev the contract responsible for locking tokens for them to be\n * sent after a defined amount of time has elapsed\n * @notice the contract is ownable, meaning only the owner of the smart\n * contract can run the core functionality. it is also pausable, meaning the\n * owner could put the work of the smart contract into a halt in case of emergencies\n */\ncontract Timelock is Ownable, Pausable {\n    // safe math prevents overflow\n    using SafeMath for uint256;\n    // safely interact with a third-party token\n    using SafeERC20 for IERC20;\n    \n    event TokensDeposited(uint256 amount);\n    event TokensLocked(address beneficiary, uint256 amount);\n    event TokensReleased(address beneficiary, uint256 amount);\n\n    /**\n     * @dev ERC20 basic token contract being held\n     */\n    IERC20 private _token;\n\n    /**\n     * @dev the non-locked token funds in the contract\n     */\n    uint256 private _funds;\n    \n    /**\n     * @dev mapping beneficiary addresses to release times\n     * @param address the beneficiary addresses to timelocks address\n     * @param uint256 time of when tokens should be released\n     */\n    mapping(address => uint256) private _releaseTimes;\n    \n    /**\n     * @dev mapping beneficiary addresses to amount of locked tokens\n     * @param address the beneficiary addresses to timelocks address\n     * @param uint256 amount of tokens locked\n     */  \n    mapping(address => uint256) private _balances;\n    \n    constructor (address token) public {\n        _token = IERC20(token);\n        _funds = _token.balanceOf(address(this));\n    }\n\n    /**  \n     * @dev return the amount of token funds in the smart contract\n     */\n    function funds() public view returns(uint256) {\n        return _funds;\n    }\n\n    /**  \n     * @dev return the amount of token funds locked for a certain beneficiary\n     */\n    function balanceOf(address beneficiary) public view returns(uint256) {\n        require(beneficiary != address(0), \"Timelock: beneficiary is the zero address\");\n        return _balances[beneficiary];\n    }\n\n    /**  \n     * @dev return the time to release token funds locked for a certain beneficiary\n     */\n    function releaseTimeOf(address beneficiary) public view returns(uint256) {\n        require(beneficiary != address(0), \"Timelock: beneficiary is the zero address\");\n        return _releaseTimes[beneficiary];\n    }\n\n    /**  \n     * @dev deposit tokens\n     * @notice deposited tokens are added to the non-locked token funds\n     */\n    function deposit(uint256 amount) public {\n        require(amount > 0, \"Timelock: amount of tokens to be deposited is invalid\");\n        _token.safeTransferFrom(msg.sender, address(this), amount);\n        _funds += amount;\n        emit TokensDeposited(amount);\n    }\n\n    /**  \n     * @dev lock an amount of tokens for a beneficiary for them to be\n     * released at a later point in the future\n     * @notice when locking funds for the same user multiple times, it adds\n     * to the already locked amounts and uses the last release time defined\n     */\n    function lock(address beneficiary, uint256 releaseTime, uint256 amount) public onlyOwner whenNotPaused {\n        require(beneficiary != address(0), \"Timelock: beneficiary is the zero address\");\n        require(amount <= _funds && amount > 0, \"Timelock: amount of tokens to be locked is invalid\");\n        _releaseTimes[beneficiary] = releaseTime;\n        _balances[beneficiary] += amount;\n        _funds -= amount;\n        emit TokensLocked(beneficiary, amount);(beneficiary, amount);\n    }\n    \n    /**\n     * @dev transfers tokens held by timelock to beneficiary.\n     * @notice resets beneficiary balance after tokens are released\n     */\n    function release(address beneficiary) public onlyOwner whenNotPaused {\n        // solhint-disable-next-line not-rely-on-time\n        require(beneficiary != address(0), \"Timelock: beneficiary is the zero address\");\n        require(_balances[beneficiary] > 0, \"Timelock: no tokens locked for beneficiary\");\n        require(block.timestamp >= _releaseTimes[beneficiary], \"Timelock: current time is before release time\");\n        uint256 amount = _balances[beneficiary];\n        _token.safeTransfer(beneficiary, amount);\n        _balances[beneficiary] = 0;\n        emit TokensReleased(beneficiary, amount);\n    }\n}",
  "sourcePath": "/git/axpr-timelock/contracts/Timelock.sol",
  "compiler": {
    "name": "solc",
    "version": "0.5.8+commit.23d335f2.Emscripten.clang"
  },
  "schemaVersion": "3.0.16",
  "updatedAt": "2019-10-17T03:11:48.570Z",
  "devdoc": {
    "details": "the contract responsible for locking tokens for them to be sent after a defined amount of time has elapsed",
    "methods": {
      "balanceOf(address)": {
        "details": "return the amount of token funds locked for a certain beneficiary"
      },
      "deposit(uint256)": {
        "details": "deposit tokens"
      },
      "funds()": {
        "details": "return the amount of token funds in the smart contract"
      },
      "isOwner()": {
        "details": "Returns true if the caller is the current owner."
      },
      "lock(address,uint256,uint256)": {
        "details": "lock an amount of tokens for a beneficiary for them to be released at a later point in the future"
      },
      "owner()": {
        "details": "Returns the address of the current owner."
      },
      "pause()": {
        "details": "Called by a pauser to pause, triggers stopped state."
      },
      "paused()": {
        "details": "Returns true if the contract is paused, and false otherwise."
      },
      "release(address)": {
        "details": "transfers tokens held by timelock to beneficiary."
      },
      "releaseTimeOf(address)": {
        "details": "return the time to release token funds locked for a certain beneficiary"
      },
      "renounceOwnership()": {
        "details": "Leaves the contract without owner. It will not be possible to call `onlyOwner` functions anymore. Can only be called by the current owner.     * > Note: Renouncing ownership will leave the contract without an owner, thereby removing any functionality that is only available to the owner."
      },
      "transferOwnership(address)": {
        "details": "Transfers ownership of the contract to a new account (`newOwner`). Can only be called by the current owner."
      },
      "unpause()": {
        "details": "Called by a pauser to unpause, returns to normal state."
      }
    },
    "title": "Timelock"
  },
  "userdoc": {
    "methods": {
      "deposit(uint256)": {
        "notice": "deposited tokens are added to the non-locked token funds"
      },
      "lock(address,uint256,uint256)": {
        "notice": "when locking funds for the same user multiple times, it adds to the already locked amounts and uses the last release time defined"
      },
      "release(address)": {
        "notice": "resets beneficiary balance after tokens are released"
      }
    },
    "notice": "the contract is ownable, meaning only the owner of the smart contract can run the core functionality. it is also pausable, meaning the owner could put the work of the smart contract into a halt in case of emergencies"
  }
}